:1021A4005665723A312E3042203230323230393074
:0221B4003200F7
:10140D00E4900000F0A37404F01219AB121F011246
:10141D001A47EF60031218461221B612201A122134
:10142D00C7D2AF7BFF7A2179A4121FB67FE87E0366
:10143D001221319000B5E0FF1200039000B6E0FFDD
:10144D001200039000B7E0FF1200039000B3E0FF1D
:10145D001200039000AAE0FF1200039000B0E0FF1D
:10146D001200039000B3E064016003121CDC122132
:10147D008B1210A1900001E0FF04F0EF6464700A7C
:10148D001210A1E4900001F0B2B21219057F057E91
:10149D00001221319000B7E0FF6020900002E0FEC5
:1014AD0004F0EE64C87014F0900000E0FE04F0EE5D
:1014BD00B50708121F43E4900000F0E5A0F4FF907B
:1014CD0000A9E06F600EE5A0541F641F7003122089
:1014DD004875C720E580F4FF9000B4E06F60037598
:0714ED00C720122227808DA9
:1021B600758900438E80758A67758C7ED28CD2A90C
:0121C60022F6
:03000B00021FE9E8
:101FE900C0E0C083C082C0D0C28C90005EE0C394C0
:101FF9000374809480400C9000497401F0B2B4C21B
:102009009C800590005EE4F0D0D0D082D083D0E0EF
:012019003294
:101E080041007E0041005E004100490041007D30F4
:10201A0043A24053A27FC2CD53873F759850438E47
:10202A000575D7E075D6FE9000B5E06406700675B2
:0E203A00D77075D6FF438E1053AFFBD2AC2289
:080003008F993099FDC299228A
:101FB600900018EBF0A3EAF0A3E9F0900018E0FB1C
:101FC600A3E0FAA3E0F91206A46017900018A3E4B0
:101FD60075F001120746A9F0FA1206A4FF120003D3
:031FE60080D9227D
:05222200AE07020003FD
:03002300021D4675
:101D4600C0E0C083C082C0D075D008C2AC3098490C
:101D5600C29890005EE060149000B6E0FF90004AE2
:101D6600E0FE6F6007EE600464C1702D90005EE0D7
:101D7600FF04F0744A2FF582E43400F583E599F008
:101D860090005EE0C39414748094804002E4F0C234
:101D96008C758A67758C7ED28C309902C299D2ACCA
:091DA600D0D0D082D083D0E0320D
:092202002563256325630D0A0024
:101E18004300B50501004300AD0501004200ABC019
:0B1E2800004200A7C2004200B1C4004D
:0E21E700E4F5C7F5C5F5C675C3FF75C4FF2244
:101E60009000AB7A0079B5E0FEA3E0FF7B01900023
:061E700047E4F0A304F0BA
:101E7600AD07AC06C2AF75C78375C501ECF5C3AF38
:101E8600058FC475C65A75C6A500E5C21206EA0DC9
:101E9600BD00010C740129F9E43AFA90004774FF79
:0F1EA600F5F012073045F070D31221E7D2AF22CA
:05209A00E0FEA3E0FFE1
:10209F00AD07AC06C2AF75C783ECF5C3AF058FC4F0
:1020AF0075C78375C50375C65A75C6A5001221E796
:0320BF00D2AF227B
:0D1EB500E0FEA3E0FF900047E4F0A304F07E
:101EC200AD07AC06C2AF75C78375C502ECF5C3AFEB
:101ED200058FC41206A4F5C275C65A75C6A5000DB3
:101EE200BD00010C740129F9E43AFA90004774FF2D
:0F1EF200F5F012073045F070D31221E7D2AF227E
:10184600121E609000B5E0F470109000AB12209A62
:101856009000AB7A0079AD121EB59000A77A007998
:10186600B6121E679000B6E0F470109000A7122022
:101876009A9000A77A0079AE121EB59000B1E0FEEC
:10188600A3E0FF7B017A0079B7121E6E9000B7E0E5
:10189600F470159000B112209A9000B1E0FEA3E01A
:1018A600FF7A0079AF121EBA121E609000A7E0FE02
:1018B600A3E0FF7A0079B6121E6E9000B1E0FEA397
:1018C600E0FF7A0079B7121E6E90001B74FFF0A33A
:1018D6007422F0A37402F09000B5E090001EF09020
:1018E60000B6E090001FF09000B7E0900020F07A7C
:0F18F600007903120A7A7B017A007903021FB688
:102048007A0079AD121C6C9000A7E0FEA3E0FF7B3C
:10205800017A0079AE121C769000B1E0FEA3E0FF91
:092068007B017A0079AF021C76BD
:0A1C6C009000ABE0FEA3E0FF7B0157
:101C760090003BEEF0A3EFF0A3EBF0A3EAF0A3E9AC
:011C8600F06D
:101C8700A37403F0900040E0FF14F0EF604490006D
:101C97003B12209A90003BE0FEA3E0FFA3E0FBA3EA
:101CA700E0FAA3E0F9121EBA90003BE0FEA3E0FFC2
:101CB7007B017A007941121E6E90003DE0FBA3E0A4
:101CC700FAA3E0F91206A4FF900041E0B507B57F3B
:041CD70000227F0167
:011CDB0022E6
:101A4700E5A0F49000A9F0E0FE541FFD70037F01AC
:101A570022EE5480FF7E0070069000B57405F0EF0B
:101A670064804E70069000B57406F09000A9E054AB
:101A770060FF7E0070049000B7F0EF64204E7005A1
:101A87009000B704F0EF64404E70069000B77403FF
:101A9700F0EF64604E70069000B77405F09000B6E2
:101AA700EDF07A0079B5121C6C9000A7E0FEA3E078
:101AB700FF7B017A0079B6121C769000B1E0FEA395
:0E1AC700E0FF7B017A0079B7121C767F0022C7
:101F0100C2C2E580F49000B4F0E0540FFF700F906E
:101F110000AAF09000B0F09000B304F0802190008E
:101F2100B4E0FE54C0C4131354039000AAF0EE545D
:101F310030C4540F9000B0F0EF24169000B3F07F3E
:021F410001227B
:101CDC00D2C27FE87E0312213190000374C0F0E47D
:101CEC00A3F0A37406F0E4A3F09000AAE090000720
:101CFC00F09000B0E0900008F0A37464F0E4A3F05E
:101D0C009000B3E090000BF0E4A3F090000CE0FF27
:101D1C00C3940974809480501774032FF582E434B3
:101D2C0000F583E0FF12000390000CE004F080DB70
:091D3C007FE87E03122131C2C2CE
:011D4500227B
:0C207100C2C512207DC2C612207DD2C55F
:10207D00E4FFFEE4FDFC0DBD00010CED64074C70AA
:0C208D00F50FBF00010EEF64024E70E77B
:012099002224
:10215100D2C6D2C512207D20C602C322C2C6122019
:0D2161007D30C602C322C2C612207DD322EB
:08220B00122071D2C602207DF1
:08221300122071C2C502207DFA
:0F21D800C2C512207DD2C6122078C2C502207D5A
:10000E00C2C512207DD2C612207830C604C2C5C326
:05001E0022C2C5D3223F
:0220E900AB0743
:1020EB007A08AF021AEF6018C2C512207DEB30E7F9
:1020FB0004D2C68002C2C6EB25E0FB12207880E238
:02210B00C2C54B
:01210D0022AF
:10210E007B08E4FAD2C6AF031BEF6012EA25E0FAB1
:10211E00C2C512207830C6EEEA4401FA80E8C2C584
:02212E00AF02FE
:01213000228C
:101F7D00900003EEF0A3EFF01221514001227F8873
:101F8D001220E912000E400512220BC3229000030D
:101F9D00E0FF1220E912000E900003A3E0FF1220D3
:091FAD00E912000E12220BD322EE
:07221B007F367E22021F7DC9
:1021C7007F647E0012213112221B7F647E00022170
:0121D70031D6
:1014F40090001BEEF0A3EFF0A3EBF0A3EAF0A3E956
:10150400F01221514001227F881220E912000E407E
:1015140002802A90001BE0FF1220E912000E9000C6
:101524001BA3E0FF1220E912000E12220B1221511C
:101534004001227F891220E912000E400512220B7D
:10154400C32212210E90001DE0FBA3E0FAA3E0F9F0
:10155400EF1206EA12221312210E90001DE0FBA3E3
:10156400E0FAA3E0F9900001EF1206FC1222131234
:10157400210E90001DE0FBA3E0FAA3E0F990000225
:10158400EF1206FC12221312210E90001DE0FBA3A1
:10159400E0FAA3E0F9900003EF1206FC1222131202
:1015A400210E90001DE0FBA3E0FAA3E0F9900004F3
:1015B400EF1206FC12221312210E90001DE0FBA371
:1015C400E0FAA3E0F9900005EF1206FC1221D8120C
:0415D400220BD322F1
:1020C200AD07AC06E4120342E4FBFA792F7843121F
:1020D200011E7B007AFF797F7847120227E4FBFA20
:0720E200793478C202002DE1
:10216E00AD07AC06E4120342E4FBFA79C8784212DA
:0D217E00011E7B007AFF797F78470202275F
:1010A1007B017A0079C07F007EE01214F4505A90DF
:1010B10000C0E0FCE41203479000031207EC90002B
:1010C100C1E0FCE41203479000071207EC9000C254
:1010D100E0FCE412034790000B1207EC9000C3E020
:1010E100FCE412034790000F1207EC9000C4E0FCEF
:1010F100E41203479000131207EC9000C5E0FCE4F2
:101101001203479000171207ECE4FFFE7D807C4339
:10111100900003E0F8A3E0F9A3E0FAA3E0FB1201D9
:101121001E900007E0F8A3E0F9A3E0FAA3E0FB12A8
:10113100002D12037B1220C29000BC1207ECE4FFC9
:10114100FE7DF07C429000BCE0F8A3E0F9A3E0FA58
:10115100A3E0FB1202C460064004E4FEFF22E4FFA8
:10116100FE7D307CC29000BCE0F8A3E0F9A3E0FA78
:10117100A3E0FB1202C4E45003FEFF22FFFE7D80C8
:101181007C4390000FE0F8A3E0F9A3E0FAA3E0FBB1
:1011910012011E900013E0F8A3E0F9A3E0FAA3E026
:1011A100FB12002D12037B12216E9000B81207EC86
:1011B100E4FFFE7D207C419000BCE0F8A3E0F9A3B0
:1011C100E0FAA3E0FB12011E90007F1207ECE4FF9E
:1011D100FE7D207C419000B8E0F8A3E0F9A3E0FA9D
:1011E100A3E0FB12011E9000831207EC7E007F0139
:0111F10022DB
:100E980025642D25642525200000C1814001C080DE
:100EA8004101C0804100C1814001C0804100C18131
:100EB8004000C1814001C0804101C0804100C18122
:100EC8004000C1814001C0804100C1814001C08013
:100ED8004101C0804100C1814001C0804100C18101
:100EE8004000C1814001C0804100C1814001C080F3
:100EF8004101C0804100C1814000C1814001C080E2
:100F08004101C0804100C1814001C0804100C181D0
:100F18004000C1814001C0804101C0804100C181C1
:100F28004000C1814001C0804100C1814001C080B2
:100F38004101C0804100C1814000C1814001C080A1
:100F48004101C0804100C1814001C0804100C18190
:100F58004000C1814001C0804100C1814001C08082
:100F68004101C0804100C1814001C0804100C18170
:100F78004000C1814001C0804101C0804100C18161
:100F88004000C1814001C0804100C1814001C08052
:100F98004101C0804100C1814000C0C101C30302BA
:100FA800C2C60607C705C5C404CC0C0DCD0FCFCEED
:100FB8000E0ACACB0BC90908C8D81819D91BDBDA1D
:100FC8001A1EDEDF1FDD1D1CDC14D4D515D717163D
:100FD800D6D21213D311D1D010F03031F133F3F24D
:100FE8003236F6F737F53534F43CFCFD3DFF3F3E2D
:100FF800FEFA3A3BFB39F9F83828E8E929EB2B2ABD
:10100800EAEE2E2FEF2DEDEC2CE42425E527E7E67C
:101018002622E2E323E12120E0A06061A163A3A2EC
:101028006266A6A767A56564A46CACAD6DAF6F6E6C
:10103800AEAA6A6BAB69A9A86878B8B979BB7B7A9C
:10104800BABE7E7FBF7DBDBC7CB47475B577B7B6BC
:101058007672B2B373B17170B0509091519353528C
:101068009296565797559594549C5C5D9D5F9F9EAC
:101078005E5A9A9B5B99595898884849894B8B8A3C
:101088004A4E8E8F4F8D4D4C8C44848545874746FC
:09109800868242438341818040BD
:101E33006028007F00000000000000000000000098
:101E4300000000000000000000000000000000008F
:0C1E530000000000000000000000000083
:10190500900049E070030219AA12130753A23F90F1
:10191500001B74FFF0A3740EF0A37498F090007F81
:10192500E0FCA3E0FDA3E0FEA3E0FF12037B900033
:101935001EEEF0A3EFF0900083E0FCA3E0FDA3E032
:10194500FEA3E0FF12037B900020EEF0A3EFF07BF7
:10195500017A007903120A7A7B017A007903121F52
:10196500B690004AE064C17029900017F090005EBF
:10197500E0FF900017E0FEC39F5017744A2EF582D2
:10198500E43400F583E0FF120003900017E004F053
:1019950080DBE5A2543F4440F5A2D29CE490005E72
:0519A500F0900049F084
:0119AA00221A
:101F430090005E7408F09000B6E090004AF0A3742D
:101F530003F0E4A3F0A3F0A3F0A37402121B61AD9A
:101F630007AC06EC900050F0A3EFF0121307D29CDD
:091F7300E490005EF0900049F0DA
:011F7C002242
:10130700E490001AF0A3121B61900018EEF0A3EF0F
:10131700F090005EE02448F9E43400A801FC7D0168
:101327007B017A0079187E007F021209F1EF33956D
:10133700E04F600302140C785F7C007D017B017A2B
:1013470000794AFE7F0212067E90005EE0FD900063
:10135700217401F0A37400F0A37461F0A37401F089
:10136700A37400F0A3741BF07B017A00794B12156C
:10137700D8EF700302140C90001BE0FE600E900083
:1013870060E02480F0A3EEF07F0380020F0F90004F
:101397001AEFF07B017A00795FFD7C00121B7390D6
:1013A7000018EEF0A3EFF0900018E0FCA3E0FDECCE
:1013B700FFA3E0FE245FF582E43400F583EFF074C9
:1013C700602EF582E43400F583EDF0D2CDE4900091
:1013D7001CF090001AE02402FFE433FE90001CE0AA
:1013E700FDC39FEE6480F87480985017745F2DF5E5
:1013F70082E43400F583E0FF12000390001CE00450
:05140700F080CFC2CD12
:01140C0022BD
:0E15D80090001DEBF0A3EAF0A3E9F0A3EDF004
:1015E60090001DE0FBA3E475F001120746A9F0FA8E
:1015F6001206A4FF24FE70030216961460131460EC
:101606001014604A146047240560030216960216F9
:1016160096900020E0FDA3E0F9A3E0FAA3E0900095
:101626002CC9F0A3EAF0A3E9F0900024E0F9A3E0C6
:10163600FAA3E090002FC9F0A3EAF0A3E9F0900026
:101646001DE0FBA3E0FAA3E0F91211F2803B900043
:1016560020E0FDA3E0F9A3E0FAA3E090002CC9F096
:10166600A3EAF0A3E9F0900024E0F9A3E0FAA3E0EE
:1016760090002FC9F0A3EAF0A3E9F090001DE0FB6B
:10168600A3E0FAA3E0F9121BE8900027EFF0801020
:10169600900024E0FBA3E0FAA3E0F974011206EA45
:0516A600900027E0FFA9
:0116AB00221C
:1011F200ED640860037F0022900038EBF0A3EAF070
:10120200A3E9F0900038E0FBA3E475F00212074670
:10121200A9F0FA12075CFFAEF07C037DE812071E0C
:10122200900032EEF0A3EFF0900038E0FBA3E0FA7A
:10123200A3E0F912075CFFAEF0900034EEF0A3EFEA
:10124200F04E6018900034E0FEA3E0FFD3947DEEF0
:1012520094005008EF940CEE9400401390002FE09D
:10126200FBA3E0FAA3E0F974031206EA7FFF2290DF
:101272000035E025E0FF900034E033900036F0A323
:10128200EFF090002CE0FBA3E475F001120746A9F1
:10129200F0FAEF1206EA90002CE0F9A3E0FAA3E0DC
:1012A200900038C9F0A3EAF0A3E9F090003474FF8B
:1012B200F5F012074645F06044900032E475F00103
:1012C200120746AFF0FE90002FE0FBA3E0FAA3E086
:1012D200F91216AC900038E0FBA3E475F002120795
:1012E20046A9F0FAEE8FF01207BF90002FE0FBA3A1
:1012F200E0FAA3E0F91206A460B17FFF2290003663
:04130200A3E004FF61
:0113060022C4
:0B16AC0090003BEBF0A3EAF0A3E9F094
:1016B70074FFA3F0A3F0EF8EF012083E16FB0000B4
:1016C7001700000117050002170A0003170F00048F
:1016D7001714000517190006171E0007172300081F
:1016E70017280009173F03E817550BB8174A3A9808
:1016F7000000176490007F802B9000838026900065
:1017070087802190008B801C90008F80179000931A
:101717008012900097800D90009B800890009F801A
:10172700039000A3E0FCA3E0FDA3E0FEA3E0FF120B
:10173700037B90003EEE801F9000B6E0FF90003ED6
:10174700E480149000B7E0FF90003EE48009900029
:10175700B5E0FF90003EE4F0A3EFF0801090003B6F
:10176700E0FBA3E0FAA3E0F974021206EA90003E58
:05177700E0FEA3E0FF0D
:01177C00224A
:0B1BE800900028EBF0A3EAF0A3E9F066
:101BF300ED640860037F0022E4FFEFC39404748064
:101C03009480502B900028E0FBA3E0FAA3E0F98F27
:101C1300827583001206BDFE90002CE0FBA3E0FA60
:101C2300A3E0F98F82758300EE1206FC0F80CB9040
:101C33000028E0FBA3E0FAA3E0F912075CFF9000A1
:101C430032E5F0F0A3EFF0900002120787FDACF04D
:101C5300900032E0FEA3E0FF90002FE0FBA3E0FA48
:081C6300A3E0F912177D7F04D4
:011C6B002256
:10177D00900034ECF0A3EDF0A3EBF0A3EAF0A3E9B5
:01178D00F06B
:10178E0074FFA3F0A3F0EF8EF012083E17B2000123
:10179E0017FF000317E3000F17CE002517D001091E
:1017AE000000182D900034A3E09000B6F09000A732
:1017BE00E0FEA3E0FF7B017A0079B6121C76806F03
:1017CE008058900034E064127004A3E06434705FBB
:1017DE001220488045900034A3E09000B7F09000AE
:1017EE00B1E0FEA3E0FF7B017A0079B7121C768090
:1017FE0029900034E0FEA3E0FF64054E6006EF641E
:10180E00064E702B9000B5EFF09000ABE0FEA3E01B
:10181E00FF7B017A0079B5121C7675C72080109077
:10182E000036E0FBA3E0FAA3E0F974021206EA9098
:07183E000039E0FEA3E0FF0A
:011845002280
:101B6100F07B017A00794A90005EE024FEFDE434C6
:021B7100FFFC77
:101B730090001DEBF0A3EAF0A3E9F0A3ECF0A3EDD2
:011B8300F071
:101B8400A374FFF0A3F090002074FFF5F012074651
:101B940045F0604590001DE0FBA3E475F0011207D9
:101BA40046A9F0FA1206A4FF900022E06FFFE4FCBD
:101BB400FDFE9000241207EC900024A3A3A3E0FCF4
:101BC400900EA193FE900023E06E900022F0EC9022
:101BD4000FA193900023F080AD900022E0FEA3E0DB
:031BE400FDEDFF15
:011BE70022DB
:10213100E4FDFCC3ED9FEC9E5015E4FBFA0BBB00E4
:0F214100010ABA04F8BB4CF50DBD00010C80E497
:01215000226C
:1019AB00E4F593F594F591F592F595F596F5B1F57A
:1019BB00B2F5B3F5B4F5C9F5CA53B3FB43B4049010
:1019CB0000037402F0900003E0FF14F0EF6010C20C
:1019DB00B27FC87E00122131D2B212213180E69043
:1019EB0000037402F0900003E0FF14F0EF6010C2EC
:1019FB00B37FC87E00122131D2B312213180E69021
:101A0B0000037402F0900003E0FF14F0EF602C125F
:101A1B0022277580FF7590FF75C0FFC2B47FE87EEB
:101A2B0003122131E4F580F590F5C0D2B4122131C7
:0B1A3B007580FF7590FF75C0FF80CA2A
:011A4600227D
:101DAF009000011206BDFF7E006401700543C1085B
:101DBF00800CEF4E700553C1F780037F0222900015
:101DCF00021206BDFFFDC374079D7480F89840088A
:101DDF0053C1F8EF42C180037F02221206A4FF7E97
:101DEF00006401700543C120800CEF4E700553C194
:091DFF00DF80037F02227F002235
:0D21F500EF6401700443C1202253C1DF22BA
:0422270043C110227D
:10218B00E4900003F0A3F0A37407F07B017A0079CD
:09219B0003121DAF7F010221F5C2
:100026000203E7E86480F8E933E83360110460F01E
:10003600ED33EC337009E8FCE9FDEAFEEBFF220440
:1000460060DED3EB9FEA9EE99DE8C2E78CF0C2F73B
:1000560095F0400CE8CCF8E9CDF9EACEFAEBCFFB07
:100066001203B285D0F05804700320D5B3E80470AB
:10007600075002B2D50203F192D5EC0460F7E4CC46
:10008600C0E0C398F8603B94186008400DD0E0FBD0
:100096000203C9E4FBFAC9FC8028E830E406E4C997
:1000A600FBE4CAFCE830E305E4C9CACBFCE8540724
:1000B6006010F8C3E913F9EA13FAEB13FBEC13FC2F
:1000C600D8F130F52FC3E49CFCEF9BFFEE9AFEEDD2
:1000D60099FDD0E0FBEF4E4D4C701222DB0302037C
:1000E600EEEC2CFCEF33FFEE33FEED33FDED30E7A7
:1000F600EB0203C9EF2BFFEE3AFEED39FDD0E0FB34
:1001060050130BBB00030203F1ED13FDEE13FEEFDC
:0801160013FFEC13FC0203C906
:10011E00EC4D6011E8497017ED33EC3304600DE4DB
:10012E00FCFFFEFD22E933E8330470F80203E71208
:10013E0003B258046009E4CC248150062850090209
:10014E0003F12840030203EEC0E0EB4A7044B9808D
:10015E0006D0E0FB0203DDEF4E701CBD8008EBFF06
:10016E00EAFEE9FD80EBE98DF0A4FEE5F002020760
:10017E00E9CDF9EAFEEBFFEF89F0A4FCE5F0CE89BC
:10018E00F0A42EFFE435F0CD89F0A42DFEE435F079
:10019E008067EF4E7005BD80D780C3EF8BF0A4ACA7
:1001AE00F0EE8BF0A42CFCE435F0F8EF8AF0A42CE2
:1001BE00E5F038FCE433CB8DF0A42CFCE5F03BF8F5
:1001CE00EE8AF0A42CFCE5F038F8E433CF89F0A4E5
:1001DE002CFCE5F038CF3400CE89F0A42FFFE5F0EB
:1001EE003EFEE433C98DF0A42EFEE5F039CD8AF043
:1001FE00A42FFFE5F03EFEE43DFD33D0E0FB5007BB
:10020E000BBB000F0203F1EC2CFCEF33FFEE33FEC1
:06021E00ED33FD0203C9EF
:100224000203F1EC5D046005E8590470030203E77E
:100234001203B2580460F6EC4860F2EC7004FDFE60
:10024400FF22C860DB2481C85009C39860025006AD
:100254000203EE9850CAF582E9294B4A7005AB8235
:100264000203DD75F0007C1A7880C3EF9BEE9AEDF3
:1002740099400DC3EF9BFFEE9AFEED99FDE842F025
:10028400DC23ACF0D0E0FFD0E0FED0E0FDAB822078
:10029400E7101BEB60BAEC2CFCEF33FFEE33FEED02
:1002A40033FD0203C9E803F830E705C0F075F00038
:1002B400EF2FFFEE33FEED33FD40B830E7C280AAE6
:1002C40074F8CC6480CCC86480C8F58204604FC3E1
:1002D400EB9FF5F0EA9E42F0E99D42F0E89C45F080
:1002E400603C501DE5825FFFE582D313CB5BCBF40A
:1002F4002B5582FB50280ABA002409B90020088033
:100304001DE5825BFBE582D313CF5FCFF4C3132FCC
:100314005582FF50090EBE00050DBD00010CC3EB54
:100324009FF5F0EA9E42F0E99D42F0E89C45F060BA
:0903340007CC4820E701B3EC22DC
:10033D0075F020800E75F010800575F0087D007E3B
:10034D00007F003392D530D5031207DEEC33401019
:10035D00EF33FFEE33FEED33FDEC33FCD5F0ED2244
:0E036D00E5F0247EA2D513CC92E7CDCEFF2280
:10037B00EDD2E7CD33EC3392D524814006E4FFFE7A
:10038B00FDFC22FCE4CFCECDCC24E0501174FF80D9
:10039B00EDC3CC13CCCD13CDCE13CECF13CF047076
:0703AB00F030D5DE0207DE91
:100A1500E510241BF582E43400F583E005102290EF
:100A2500001830070390001BE475F0011207F80267
:100A350006A42000E97F2ED2008018EF540F2490E1
:100A4500D43440D4FF30040BEF24BFB41A00500354
:100A55002461FFE511600215110514E51470020506
:100A65001330070E900018E475F0011207F8EF0235
:100A750006EA0222227403D2078003E4C207F510B6
:100A850090001812080FE4F511F513F514E511603F
:100A9500077F20120A5880F57512FFC201C200C2F5
:100AA50002C203C205C206C208120A24FF700D3035
:100AB50007057F00120A69AF14AE1322B4255FC281
:100AC500D5C204120A24FF24D0B40A00501A75F0C6
:100AD5000A781130D50508B6FF0106C6A426F6200A
:100AE500D5047002D20380D924CFB41A00EF500484
:100AF500C2E5D204020D5BD20180C6D20080C0D20D
:100B05000280BCD2D580BAD20580B47F20120A58A3
:100B15002002077401B5110040F1120A15FF120AEF
:100B250058020A92D208D2068095120A15FB120ABB
:100B350015FA120A15F94A4B700679597A0E7BFF98
:100B450020022EE511602A7E008E82758300120632
:100B5500BD60060EEE651270F0C2D5EBC0E0EAC0CE
:100B6500E0E9C0E0EE120DBCD0E0F9D0E0FAD0E04B
:100B7500FB1206A4FF60AAEBC0E0EAC0E0E9C0E012
:100B8500120A58D0E02401F9D0E03400FAD0E0FB95
:100B9500E5120460DCD512D98087D20280A2120D3D
:100BA5009E60F7E5127001041203FCA912600DE5C1
:100BB50012600914F512120E46EF60F3EA30E702EF
:100BC500F404C3995079EAF425120430E701E404EA
:100BD500F512800D120D9E60C1EA05122512120351
:100BE500FCEA900047F030E701E4251204D5120431
:100BF50020050114120DBCE4C0E0120E469000471A
:100C0500E0601320E70714F0120A40802204F0D0B8
:100C1500E014C0E07F00120A40E5126007120A37AF
:100C25001512800B300503120A37D0E0020A92D064
:100C3500E00480C4120D9E609EE512041203FC9030
:100C45000047EAF0E5122005026001042404120DB4
:010C5500BCE2
:100C560074FF04C0E0120E46120A40E51220050297
:100C66006003120A37D0E0B512E87F45120A4A90AF
:100C76000047E07F2B30E7047F2DF404C0E0120A22
:100C860058D0E075F00A84C0F0120A41D0E0120A8A
:100C960041020A92791080027908C206C2088008C9
:100CA600D2D5790A8004790AC2D5E512047002F514
:100CB60012E4FAFDFEFF120A15FC7B08200113124E
:100CC6000A15FD7B1030000A120A15FE120A15FFDE
:100CD6007B20EC3382D592D55013C3E43000069FB7
:100CE600FFE49EFEE42001039DFDE49CFCE4CBF8BA
:100CF600C201EC700CCFCECDCCE824F8F870F380AE
:100D060017C3EF33FFEE33FEED33FDEC33FCEB336D
:100D1600FB994002FB0FD8E9EB300105F8D0E0C49F
:100D260048B201C0E00AEC4D4E4F78207B0070C2FD
:100D3600EAB5120040BCC0E0120DBED0F0D0E020F3
:100D46000104C4C0E0C4B201C0F0120A41D0F0D51B
:100D5600F0EB020A921208180B2F530C9A580B004C
:100D66004C0AFC420C9E4F0CA6440CA6490B15439C
:100D76000CAC550BD9460C39450BA3470E79500BD5
:100D8600042D0B082E0B2B2B0B0C230B29200E628C
:100D96002A0AC44800000B23E512B4FF03751206A5
:100DA600120A15FC120A15FD120A15FE120A15FF83
:100DB600900040020439790AA2D5200314300509AF
:100DC600B910020404B9080104A2D5200602500194
:100DD600042002689202B511005034C0E07F203032
:100DE60003197F30A20272067205500F120E15C249
:100DF60002C206C205C2087F30800F300503E9C073
:100E0600E0120A58300503D0E0F9D0E0B511CC3035
:100E160005177F30B9100C120A587F583004077F27
:100E2600788003B90803120A583002057F2D020A9A
:100E3600587F202008F87F2B2006F322920280CFCD
:100E46007F00B40700500B2440F582E43400F5839C
:100E5600E0FF22286E756C6C2900D201120A15304B
:100E660001F8C201781130D50108F6020AC42D50E6
:100E7600434958120A152403B405004001E4900EB4
:100E86007493120A49743A120A49D203751104027C
:020E96000C9AB4
:1003B200E9D2E7C933E833F892D5EDD2E7CD33EC91
:0703C20033FC5002B2D5220A
:1003C900EC30E7100FBF000C0EBE00080DBD000495
:1003D9000BEB6014A2D5EB13FCED92E7FD2274FF41
:1003E900FCFDFEFF22E480F8A2D574FF13FC7D809A
:0303F900E480EFAE
:1003FC00F920E73624F950037907E4F42402FBE5ED
:10040C0082158270021583DBF6E024FB501BE96039
:10041C0014E4F0E582158270021583E004F0B40A4E
:0D042C0008E4F0D9EE7401F00A22C2D522D6
:10043900ED33EC3392D5FA602AB4FF33EDC2E77B92
:10044900FF60067A04795EE4227A04796720D5048C
:100459007A047962224E614E002B494E46002D499D
:100469004E4600E47A08F0A3DAFC7B00740722C048
:1004790083C082ECC0E0EDC0E0EEC0E0EFC0E0EA8E
:1004890075F010A4CAABF075F04DA42BFBE435F060
:10049900FCEA2410FAEB34C5FBEC34D9FCEDC2E7D5
:1004A900FF75F056A4F42411C5F0F434C58FF0A4F7
:1004B9002AE5F03BE43CF020E71412056ED0E0FF9A
:1004C900D0E0FED0E0FDD0E0FC1202278014F40455
:1004D90012056ED0E0FFD0E0FED0E0FDD0E0FC12C6
:1004E900011ED082D083E0FAEDD2E7CD33EC33247C
:1004F90082FBE4C3CF33CFCE33CECD33CD33DBF361
:100509007B0775F00A846004F0A31B0AE5F0F0A3E9
:100519008FF0740AA4FFACF08EF0740AA42CFEAC20
:10052900F050010C8DF0740AA42CFDE435F0F0A311
:05053900DBDE74072267
:10053E003F8000004120000042C80000447A0000C5
:10054E00461C400047C35000497424004B18968047
:10055E004CBEBC205A0E1BCA6753C21C749DC5AE3E
:10056E00FB60065407601C232312059CEB54386075
:10057E000912058812059712011EECF8EDF9EEFA34
:10058E00EFCB22EB12059780F1543803241C900513
:10059E003EFE93FC0EEE93FD0EEE930ECE93FF22D7
:03000000021AD50C
:0C1AD500787FE4F6D8FD758121021B1C0F
:1005AE00E709F608DFFA8046E709F208DFFA803E2F
:1005BE0088828C83E709F0A3DFFA8032E309F6081C
:1005CE00DFFA8078E309F208DFFA807088828C8384
:1005DE00E309F0A3DFFA806489828A83E0A3F60838
:1005EE00DFFA805889828A83E0A3F208DFFA804C12
:1005FE0080D280FA80C680D4806980F280338010E9
:10060E0080A680EA809A80A880DA80E280CA803351
:10061E0089828A83ECFAE493A3C8C582C8CCC583C9
:10062E00CCF0A3C8C582C8CCC583CCDFE9DEE78099
:10063E000D89828A83E493A3F608DFF9ECFAA9F018
:10064E00EDFB2289828A83ECFAE0A3C8C582C8CC6E
:10065E00C583CCF0A3C8C582C8CCC583CCDFEADE87
:10066E00E880DB89828A83E493A3F208DFF980CCE9
:10067E0088F0EF60010E4E60C388F0ED2402B404E2
:10068E000050B9F582EB2402B4040050AF23234589
:06069E0082239005FE73AB
:1006A400BB010689828A83E0225002E722BBFE0254
:0906B400E32289828A83E4932287
:1006BD00BB010CE58229F582E5833AF583E02250F2
:1006CD0006E92582F8E622BBFE06E92582F8E2223C
:0D06DD00E58229F582E5833AF583E4932256
:1006EA00BB010689828A83F0225002F722BBFE01EF
:0206FA00F322E9
:1006FC00F8BB010DE58229F582E5833AF583E8F034
:10070C00225006E92582C8F622BBFE05E92582C8DF
:02071C00F222C7
:10071E00EF8DF0A4A8F0CF8CF0A428CE8DF0A42EEF
:02072E00FE22A9
:10073000C5F0F8A3E028F0C5F0F8E5821582700254
:060740001583E038F022F1
:10074600A3F8E0C5F025F0F0E58215827002158366
:06075600E0C838F0E822C3
:10075C00BB010A89828A83E0F5F0A3E02250068768
:10076C00F009E71922BBFE07E3F5F009E31922892A
:0B077C00828A83E493F5F0740193225D
:10078700BB0110E58229F582E5833AF583E0F5F0B0
:10079700A3E0225009E92582F886F008E622BBFE8D
:1007A7000AE92582F8E2F5F008E222E5832AF583D3
:0807B700E993F5F0A3E9932298
:1007BF00BB010A89828A83F0E5F0A3F0225006F785
:0F07CF0009A7F01922BBFE06F3E5F009F3192282
:0E07DE00C3E49FFFE49EFEE49DFDE49CFC222C
:0C07EC00ECF0A3EDF0A3EEF0A3EFF02280
:1007F800F8E0FBA3A3E0F925F0F0E582158270028A
:070808001583E0FA38F0222D
:09080F00EBF0A3EAF0A3E9F022EA
:10081800D083D082F8E4937012740193700DA3A36F
:1008280093F8740193F5828883E473740293686083
:06083800EFA3A3A380DF83
:10083E00D083D082F8E4937012740193700DA3A349
:10084E0093F8740193F5828883E473740293B5F080
:0D085E00067403936860E9A3A3A3A380D8E8
:10086B00E3F5F009E208B5F06BDFF58067E3F5F02F
:10087B0009E608B5F05EDFF5805A87F009E608B5A2
:10088B00F052DFF6804E87F009E208B5F046DFF64E
:10089B00804288828C8387F009E0A3B5F036DFF6BF
:1008AB00803288828C8387F009E493A3B5F025DF2F
:1008BB00F5802188828C83E3F5F009E0A3B5F01471
:1008CB00DFF5801088828C83E3F5F009E493A3B500
:1008DB00F002DFF402099A808780E9809080D4804F
:1008EB003E8015806E807E809D80B7808D80A3803A
:1008FB00518074803C0209A689828A83ECFAE493C6
:10090B00F5F0A3C8C582C8CCC583CCE493A3C8C5F6
:10091B0082C8CCC583CCB5F076DFE3DEE18070898D
:10092B00828A83E493F5F0A3E208B5F062DFF480EA
:10093B005E89828A83E0F5F0A3E608B5F051DFF516
:10094B00804D89828A83E0F5F0A3E208B5F040DFA1
:10095B00F5803C89828A83E493F5F0A3E608B5F031
:10096B002EDFF4802A8002805789828A83ECFAE496
:10097B0093F5F0A3C8C582C8CCC583CCE0A3C8C58A
:10098B0082C8CCC583CCB5F006DFE4DEE280007F05
:10099B00FFB5F0020F2240027F012289828A83EC8D
:1009AB00FAE0F5F0A3C8C582C8CCC583CCE0A3C8D8
:1009BB00C582C8CCC583CCB5F0D5DFE5DEE380CFEF
:1009CB0089828A83ECFAE0F5F0A3C8C582C8CCC54E
:1009DB0083CCE493A3C8C582C8CCC583CCB5F0AF98
:1009EB00DFE4DEE280A988F0EF60010E4E60ABED34
:1009FB002402B404005098F582EB2402B404005096
:0A0A0B008E23234582239008E27336
:101AE10002140DE493A3F8E493A34003F68001F2FA
:101AF10008DFF48029E493A3F85407240CC8C33306
:101B0100C4540F4420C8834004F456800146F6DFD4
:101B1100E4800B0102040810204080901E08E47E3E
:101B2100019360BCA3FF543F30E509541FFEE493C9
:101B3100A360010ECF54C025E060A840B8E493A390
:101B4100FAE493A3F8E493A3C8C582C8CAC583CABB
:101B5100F0A3C8C582C8CAC583CADFE9DEE780BE73
:011E5F000082
:00000001FF
